{
  "_format": "hh-sol-artifact-1",
  "contractName": "eventos",
  "sourceName": "contracts/eventos.sol",
  "abi": [
    {
      "inputs": [
        {
          "internalType": "uint256",
          "name": "id_evento",
          "type": "uint256"
        }
      ],
      "name": "comprarBoleto",
      "outputs": [],
      "stateMutability": "payable",
      "type": "function"
    },
    {
      "inputs": [
        {
          "internalType": "uint256",
          "name": "boletosACrear",
          "type": "uint256"
        },
        {
          "internalType": "string",
          "name": "nombreEvento",
          "type": "string"
        },
        {
          "internalType": "uint256",
          "name": "fechaEvento",
          "type": "uint256"
        },
        {
          "internalType": "uint256",
          "name": "precioBoleto",
          "type": "uint256"
        }
      ],
      "name": "crearEvento",
      "outputs": [],
      "stateMutability": "payable",
      "type": "function"
    },
    {
      "inputs": [],
      "name": "geEventosActivos",
      "outputs": [
        {
          "internalType": "uint256[]",
          "name": "",
          "type": "uint256[]"
        }
      ],
      "stateMutability": "view",
      "type": "function"
    },
    {
      "inputs": [],
      "name": "geEventosActivos1",
      "outputs": [
        {
          "components": [
            {
              "internalType": "uint256",
              "name": "identificadorEvento",
              "type": "uint256"
            },
            {
              "internalType": "address",
              "name": "organizador",
              "type": "address"
            },
            {
              "internalType": "string",
              "name": "nombreEvento",
              "type": "string"
            },
            {
              "internalType": "uint256",
              "name": "fechaEvento",
              "type": "uint256"
            },
            {
              "internalType": "uint256",
              "name": "ticketsDisponibles",
              "type": "uint256"
            },
            {
              "internalType": "uint256",
              "name": "precioBoleto",
              "type": "uint256"
            }
          ],
          "internalType": "struct eventos.Evento[]",
          "name": "",
          "type": "tuple[]"
        }
      ],
      "stateMutability": "view",
      "type": "function"
    },
    {
      "inputs": [],
      "name": "getBoletosCompradosPorUsuario",
      "outputs": [
        {
          "internalType": "string[]",
          "name": "",
          "type": "string[]"
        }
      ],
      "stateMutability": "view",
      "type": "function"
    },
    {
      "inputs": [],
      "name": "getBoletosCompradosPorUsuarioContador",
      "outputs": [
        {
          "internalType": "uint256",
          "name": "",
          "type": "uint256"
        }
      ],
      "stateMutability": "view",
      "type": "function"
    },
    {
      "inputs": [
        {
          "internalType": "uint256",
          "name": "id_evento",
          "type": "uint256"
        }
      ],
      "name": "getBoletosRestantesDelEvento",
      "outputs": [
        {
          "internalType": "uint256",
          "name": "",
          "type": "uint256"
        }
      ],
      "stateMutability": "view",
      "type": "function"
    },
    {
      "inputs": [
        {
          "internalType": "uint256",
          "name": "id_evento",
          "type": "uint256"
        }
      ],
      "name": "getBoletosRestantesPorUsuario",
      "outputs": [
        {
          "internalType": "uint256",
          "name": "",
          "type": "uint256"
        }
      ],
      "stateMutability": "view",
      "type": "function"
    },
    {
      "inputs": [],
      "name": "getCantidadEventos",
      "outputs": [
        {
          "internalType": "uint256",
          "name": "",
          "type": "uint256"
        }
      ],
      "stateMutability": "view",
      "type": "function"
    },
    {
      "inputs": [],
      "name": "getCantidadEventosActivos",
      "outputs": [
        {
          "internalType": "uint256",
          "name": "",
          "type": "uint256"
        }
      ],
      "stateMutability": "view",
      "type": "function"
    },
    {
      "inputs": [
        {
          "internalType": "uint256",
          "name": "evento_id",
          "type": "uint256"
        }
      ],
      "name": "getDescripcionDeEvento",
      "outputs": [
        {
          "internalType": "string",
          "name": "",
          "type": "string"
        }
      ],
      "stateMutability": "view",
      "type": "function"
    },
    {
      "inputs": [],
      "name": "getTodosLosEventos",
      "outputs": [
        {
          "internalType": "uint256[]",
          "name": "",
          "type": "uint256[]"
        }
      ],
      "stateMutability": "view",
      "type": "function"
    }
  ],
  "bytecode": "0x608060405234801561001057600080fd5b50611ee0806100206000396000f3fe6080604052600436106100a75760003560e01c80637f30e11c116100645780637f30e11c146101d2578063cdab3012146101ee578063d25c7fdf14610219578063d51da6d114610244578063dc8d7c4d14610260578063e749f75c1461029d576100a7565b806318db3db6146100ac578063301e4ab9146100d75780635d9b5b111461010257806361aa38361461013f5780636ecbdf671461016a5780637b7b56bd14610195575b600080fd5b3480156100b857600080fd5b506100c16102c8565b6040516100ce919061102d565b60405180910390f35b3480156100e357600080fd5b506100ec610335565b6040516100f9919061119a565b60405180910390f35b34801561010e57600080fd5b50610129600480360381019061012491906111fc565b61053b565b604051610136919061102d565b60405180910390f35b34801561014b57600080fd5b50610154610634565b604051610161919061102d565b60405180910390f35b34801561017657600080fd5b5061017f610641565b60405161018c91906113c4565b60405180910390f35b3480156101a157600080fd5b506101bc60048036038101906101b791906111fc565b610863565b6040516101c9919061102d565b60405180910390f35b6101ec60048036038101906101e791906111fc565b610892565b005b3480156101fa57600080fd5b506102036109b4565b6040516102109190611495565b60405180910390f35b34801561022557600080fd5b5061022e610a92565b60405161023b919061102d565b60405180910390f35b61025e600480360381019061025991906115ec565b610b4c565b005b34801561026c57600080fd5b50610287600480360381019061028291906111fc565b610c8e565b60405161029491906116b9565b60405180910390f35b3480156102a957600080fd5b506102b2610d68565b6040516102bf9190611495565b60405180910390f35b6000806000905060005b60018054905081101561032d5742600182815481106102f4576102f36116db565b5b9060005260206000209060060201600301541061031a57818061031690611739565b9250505b808061032590611739565b9150506102d2565b508091505090565b60606000610341610a92565b905060008167ffffffffffffffff81111561035f5761035e6114c1565b5b60405190808252806020026020018201604052801561039257816020015b606081526020019060019003908161037d5790505b5090506000805b600080549050811015610531573373ffffffffffffffffffffffffffffffffffffffff16600082815481106103d1576103d06116db565b5b906000526020600020906003020160020160009054906101000a900473ffffffffffffffffffffffffffffffffffffffff1673ffffffffffffffffffffffffffffffffffffffff160361051e57600160008281548110610434576104336116db565b5b90600052602060002090600302016001015481548110610457576104566116db565b5b90600052602060002090600602016002018054610473906117b0565b80601f016020809104026020016040519081016040528092919081815260200182805461049f906117b0565b80156104ec5780601f106104c1576101008083540402835291602001916104ec565b820191906000526020600020905b8154815290600101906020018083116104cf57829003601f168201915b5050505050838381518110610504576105036116db565b5b6020026020010181905250818061051a90611739565b9250505b808061052990611739565b915050610399565b5081935050505090565b6000806000905060005b60008054905081101561061e573373ffffffffffffffffffffffffffffffffffffffff166000828154811061057d5761057c6116db565b5b906000526020600020906003020160020160009054906101000a900473ffffffffffffffffffffffffffffffffffffffff1673ffffffffffffffffffffffffffffffffffffffff161480156105f65750600081815481106105e1576105e06116db565b5b90600052602060002090600302016001015484145b1561060b5760018261060891906117e1565b91505b808061061690611739565b915050610545565b5080600361062c9190611815565b915050919050565b6000600180549050905090565b6060600060018054905067ffffffffffffffff811115610664576106636114c1565b5b60405190808252806020026020018201604052801561069d57816020015b61068a610f91565b8152602001906001900390816106825790505b5090506000805b60018054905081101561085a5742600182815481106106c6576106c56116db565b5b9060005260206000209060060201600301541061084757600181815481106106f1576106f06116db565b5b90600052602060002090600602016040518060c0016040529081600082015481526020016001820160009054906101000a900473ffffffffffffffffffffffffffffffffffffffff1673ffffffffffffffffffffffffffffffffffffffff1673ffffffffffffffffffffffffffffffffffffffff16815260200160028201805461077a906117b0565b80601f01602080910402602001604051908101604052809291908181526020018280546107a6906117b0565b80156107f35780601f106107c8576101008083540402835291602001916107f3565b820191906000526020600020905b8154815290600101906020018083116107d657829003601f168201915b50505050508152602001600382015481526020016004820154815260200160058201548152505083838151811061082d5761082c6116db565b5b6020026020010181905250818061084390611739565b9250505b808061085290611739565b9150506106a4565b50819250505090565b600060018281548110610879576108786116db565b5b9060005260206000209060060201600401549050919050565b61089a610fdd565b6000805490508160000181815250508181602001818152505033816040019073ffffffffffffffffffffffffffffffffffffffff16908173ffffffffffffffffffffffffffffffffffffffff16815250506000819080600181540180825580915050600190039060005260206000209060030201600090919091909150600082015181600001556020820151816001015560408201518160020160006101000a81548173ffffffffffffffffffffffffffffffffffffffff021916908373ffffffffffffffffffffffffffffffffffffffff16021790555050506001808381548110610989576109886116db565b5b906000526020600020906006020160040160008282546109a99190611815565b925050819055505050565b606060006109c06102c8565b67ffffffffffffffff8111156109d9576109d86114c1565b5b604051908082528060200260200182016040528015610a075781602001602082028036833780820191505090505b5090506000805b600180549050811015610a89574260018281548110610a3057610a2f6116db565b5b90600052602060002090600602016003015410610a765780838381518110610a5b57610a5a6116db565b5b6020026020010181815250508180610a7290611739565b9250505b8080610a8190611739565b915050610a0e565b50819250505090565b6000806000905060005b600080549050811015610b44573373ffffffffffffffffffffffffffffffffffffffff1660008281548110610ad457610ad36116db565b5b906000526020600020906003020160020160009054906101000a900473ffffffffffffffffffffffffffffffffffffffff1673ffffffffffffffffffffffffffffffffffffffff1603610b3157600182610b2e91906117e1565b91505b8080610b3c90611739565b915050610a9c565b508091505090565b34846000821015610b5c57600080fd5b610b64610f91565b60018054905081600001818152505033816020019073ffffffffffffffffffffffffffffffffffffffff16908173ffffffffffffffffffffffffffffffffffffffff16815250508581604001819052508481606001818152505086816080018181525050838160a001818152505060018190806001815401808255809150506001900390600052602060002090600602016000909190919091506000820151816000015560208201518160010160006101000a81548173ffffffffffffffffffffffffffffffffffffffff021916908373ffffffffffffffffffffffffffffffffffffffff1602179055506040820151816002019081610c6491906119f5565b50606082015181600301556080820151816004015560a08201518160050155505050505050505050565b606060018281548110610ca457610ca36116db565b5b9060005260206000209060060201600201610ce360018481548110610ccc57610ccb6116db565b5b906000526020600020906006020160030154610e09565b610d1160018581548110610cfa57610cf96116db565b5b906000526020600020906006020160040154610e09565b610d3f60018681548110610d2857610d276116db565b5b906000526020600020906006020160050154610e09565b604051602001610d529493929190611cb6565b6040516020818303038152906040529050919050565b60606000610d746102c8565b67ffffffffffffffff811115610d8d57610d8c6114c1565b5b604051908082528060200260200182016040528015610dbb5781602001602082028036833780820191505090505b50905060005b600180549050811015610e015780828281518110610de257610de16116db565b5b6020026020010181815250508080610df990611739565b915050610dc1565b508091505090565b606060008203610e50576040518060400160405280600181526020017f30000000000000000000000000000000000000000000000000000000000000008152509050610f8c565b600082905060005b60008214610e82578080610e6b90611739565b915050600a82610e7b9190611df5565b9150610e58565b60008167ffffffffffffffff811115610e9e57610e9d6114c1565b5b6040519080825280601f01601f191660200182016040528015610ed05781602001600182028036833780820191505090505b50905060008290505b60008614610f8457600181610eee9190611815565b90506000600a8088610f009190611df5565b610f0a9190611e26565b87610f159190611815565b6030610f219190611e75565b905060008160f81b905080848481518110610f3f57610f3e6116db565b5b60200101907effffffffffffffffffffffffffffffffffffffffffffffffffffffffffffff1916908160001a905350600a88610f7b9190611df5565b97505050610ed9565b819450505050505b919050565b6040518060c0016040528060008152602001600073ffffffffffffffffffffffffffffffffffffffff168152602001606081526020016000815260200160008152602001600081525090565b60405180606001604052806000815260200160008152602001600073ffffffffffffffffffffffffffffffffffffffff1681525090565b6000819050919050565b61102781611014565b82525050565b6000602082019050611042600083018461101e565b92915050565b600081519050919050565b600082825260208201905092915050565b6000819050602082019050919050565b600081519050919050565b600082825260208201905092915050565b60005b838110156110ae578082015181840152602081019050611093565b60008484015250505050565b6000601f19601f8301169050919050565b60006110d682611074565b6110e0818561107f565b93506110f0818560208601611090565b6110f9816110ba565b840191505092915050565b600061111083836110cb565b905092915050565b6000602082019050919050565b600061113082611048565b61113a8185611053565b93508360208202850161114c85611064565b8060005b8581101561118857848403895281516111698582611104565b945061117483611118565b925060208a01995050600181019050611150565b50829750879550505050505092915050565b600060208201905081810360008301526111b48184611125565b905092915050565b6000604051905090565b600080fd5b600080fd5b6111d981611014565b81146111e457600080fd5b50565b6000813590506111f6816111d0565b92915050565b600060208284031215611212576112116111c6565b5b6000611220848285016111e7565b91505092915050565b600081519050919050565b600082825260208201905092915050565b6000819050602082019050919050565b61125e81611014565b82525050565b600073ffffffffffffffffffffffffffffffffffffffff82169050919050565b600061128f82611264565b9050919050565b61129f81611284565b82525050565b600060c0830160008301516112bd6000860182611255565b5060208301516112d06020860182611296565b50604083015184820360408601526112e882826110cb565b91505060608301516112fd6060860182611255565b5060808301516113106080860182611255565b5060a083015161132360a0860182611255565b508091505092915050565b600061133a83836112a5565b905092915050565b6000602082019050919050565b600061135a82611229565b6113648185611234565b93508360208202850161137685611245565b8060005b858110156113b25784840389528151611393858261132e565b945061139e83611342565b925060208a0199505060018101905061137a565b50829750879550505050505092915050565b600060208201905081810360008301526113de818461134f565b905092915050565b600081519050919050565b600082825260208201905092915050565b6000819050602082019050919050565b600061141e8383611255565b60208301905092915050565b6000602082019050919050565b6000611442826113e6565b61144c81856113f1565b935061145783611402565b8060005b8381101561148857815161146f8882611412565b975061147a8361142a565b92505060018101905061145b565b5085935050505092915050565b600060208201905081810360008301526114af8184611437565b905092915050565b600080fd5b600080fd5b7f4e487b7100000000000000000000000000000000000000000000000000000000600052604160045260246000fd5b6114f9826110ba565b810181811067ffffffffffffffff82111715611518576115176114c1565b5b80604052505050565b600061152b6111bc565b905061153782826114f0565b919050565b600067ffffffffffffffff821115611557576115566114c1565b5b611560826110ba565b9050602081019050919050565b82818337600083830152505050565b600061158f61158a8461153c565b611521565b9050828152602081018484840111156115ab576115aa6114bc565b5b6115b684828561156d565b509392505050565b600082601f8301126115d3576115d26114b7565b5b81356115e384826020860161157c565b91505092915050565b60008060008060808587031215611606576116056111c6565b5b6000611614878288016111e7565b945050602085013567ffffffffffffffff811115611635576116346111cb565b5b611641878288016115be565b9350506040611652878288016111e7565b9250506060611663878288016111e7565b91505092959194509250565b600082825260208201905092915050565b600061168b82611074565b611695818561166f565b93506116a5818560208601611090565b6116ae816110ba565b840191505092915050565b600060208201905081810360008301526116d38184611680565b905092915050565b7f4e487b7100000000000000000000000000000000000000000000000000000000600052603260045260246000fd5b7f4e487b7100000000000000000000000000000000000000000000000000000000600052601160045260246000fd5b600061174482611014565b91507fffffffffffffffffffffffffffffffffffffffffffffffffffffffffffffffff82036117765761177561170a565b5b600182019050919050565b7f4e487b7100000000000000000000000000000000000000000000000000000000600052602260045260246000fd5b600060028204905060018216806117c857607f821691505b6020821081036117db576117da611781565b5b50919050565b60006117ec82611014565b91506117f783611014565b925082820190508082111561180f5761180e61170a565b5b92915050565b600061182082611014565b915061182b83611014565b92508282039050818111156118435761184261170a565b5b92915050565b60008190508160005260206000209050919050565b60006020601f8301049050919050565b600082821b905092915050565b6000600883026118ab7fffffffffffffffffffffffffffffffffffffffffffffffffffffffffffffffff8261186e565b6118b5868361186e565b95508019841693508086168417925050509392505050565b6000819050919050565b60006118f26118ed6118e884611014565b6118cd565b611014565b9050919050565b6000819050919050565b61190c836118d7565b611920611918826118f9565b84845461187b565b825550505050565b600090565b611935611928565b611940818484611903565b505050565b5b818110156119645761195960008261192d565b600181019050611946565b5050565b601f8211156119a95761197a81611849565b6119838461185e565b81016020851015611992578190505b6119a661199e8561185e565b830182611945565b50505b505050565b600082821c905092915050565b60006119cc600019846008026119ae565b1980831691505092915050565b60006119e583836119bb565b9150826002028217905092915050565b6119fe82611074565b67ffffffffffffffff811115611a1757611a166114c1565b5b611a2182546117b0565b611a2c828285611968565b600060209050601f831160018114611a5f5760008415611a4d578287015190505b611a5785826119d9565b865550611abf565b601f198416611a6d86611849565b60005b82811015611a9557848901518255600182019150602085019450602081019050611a70565b86831015611ab25784890151611aae601f8916826119bb565b8355505b6001600288020188555050505b505050505050565b7f7b00000000000000000000000000000000000000000000000000000000000000815250565b7f276e6f6d6272654576656e746f273a2000000000000000000000000000000000815250565b7f2027000000000000000000000000000000000000000000000000000000000000815250565b600081905092915050565b60008154611b51816117b0565b611b5b8186611b39565b94506001821660008114611b765760018114611b8b57611bbe565b60ff1983168652811515820286019350611bbe565b611b9485611849565b60005b83811015611bb657815481890152600182019150602081019050611b97565b838801955050505b50505092915050565b7f272c000000000000000000000000000000000000000000000000000000000000815250565b7f2766656368614576656e746f273a200000000000000000000000000000000000815250565b6000611c1e82611074565b611c288185611b39565b9350611c38818560208601611090565b80840191505092915050565b7f277469636b657473446973706f6e69626c6573273a2000000000000000000000815250565b7f2770726563696f426f6c65746f273a2000000000000000000000000000000000815250565b7f7d00000000000000000000000000000000000000000000000000000000000000815250565b6000611cc182611ac7565b600182019150611cd082611aed565b601082019150611cdf82611b13565b600282019150611cef8287611b44565b9150611cfa82611bc7565b600282019150611d0982611bed565b600f82019150611d1882611b13565b600282019150611d288286611c13565b9150611d3382611bc7565b600282019150611d4282611c44565b601682019150611d5182611b13565b600282019150611d618285611c13565b9150611d6c82611bc7565b600282019150611d7b82611c6a565b601082019150611d8a82611b13565b600282019150611d9a8284611c13565b9150611da582611bc7565b600282019150611db482611c90565b60018201915081905095945050505050565b7f4e487b7100000000000000000000000000000000000000000000000000000000600052601260045260246000fd5b6000611e0082611014565b9150611e0b83611014565b925082611e1b57611e1a611dc6565b5b828204905092915050565b6000611e3182611014565b9150611e3c83611014565b9250828202611e4a81611014565b91508282048414831517611e6157611e6061170a565b5b5092915050565b600060ff82169050919050565b6000611e8082611e68565b9150611e8b83611e68565b9250828201905060ff811115611ea457611ea361170a565b5b9291505056fea26469706673582212201a34edfe5c1e1640e845b742838fb3a7d3ed3d59ee20607d5cc1791182c473b164736f6c63430008110033",
  "linkReferences": {},
  "deployedLinkReferences": {}
}